:060000000A128A11142906
:10000800F000030EF1000B191B200B181020710EC5
:100018008300F00E700E090003138312861FA40AD2
:10002800061CA40324080F3985000B1008000313CD
:100038008312B23081000B11A00A2008323C031D44
:100048003C28A001A50A25080021880025080A3CAB
:10005800031932202808002187000800A80AA501F2
:100068002508002188002808063C0319A801080073
:0200780008007E
:100200008A010A140F3982073F3406345B344F34B5
:1002100066346D347D3407347F346F3477347C3406
:1002200039345E34793471343D2136212321302133
:100230001A21192903138316961716140313831210
:1002400006080B1008000313831681128111011593
:100250008114011403138312B23081000B110800C2
:100260008B178B168B110B150B10080003138316BD
:100270000F178F160F120F1408008316031788012B
:1002800089018316031303138316F0308500870159
:10029000880186170614811395171514831203130A
:0802A0008501870188010800B7
:04400E00C430FF3F7C
:00000001FF
